:020000040800F2
:10000000103400200101000879530008C9010008DC
:1000100075530008353500084955000800000000F8
:1000200000000000000000000000000013010008B4
:100030004535000800000000530100087D5300080A
:100040001B0100081B0100081B0100081B01000820
:100050001B0100081B0100081B0100081B01000810
:100060001B0100081B0100081B0100081B01000800
:100070001B0100081B0100081B0100081B010008F0
:100080001B0100081B0100081B0100081B010008E0
:100090003D550008393500081B0100081B01000808
:1000A0001B0100081B0100081B0100081B010008C0
:1000B0001B0100081B0100081B0100081B010008B0
:1000C0001B0100081B0100081B0100081B010008A0
:1000D0001B0100081B010008315500081B01000826
:1000E000493500081B0100081B010008DFF80CD08F
:1000F00000F02CFD00480047E90B000810340020F8
:100100000648804706480047FEE7FEE7FEE7FEE7B1
:10011000FEE7FEE7FEE7FEE7FEE7FEE771540008B4
:10012000ED000008EFF3108072B6704780F310887E
:100130007047324A1368012B04D04FF0010313605B
:100140002F4A10602F4A11602F484FF080510160F4
:100150007047EFF3108272B62848016891B14FF0F2
:10016000000101602648016829B1EFF3098121E906
:10017000F00F00680160234909680968B1E8F00FD1
:1001800081F3098882F310884EF0040E70471D49F0
:1001900008601B494FF00000086018494FF001004B
:1001A00008601A481A49D0F8002041EA02010160AB
:1001B00015484FF08051016016480068006880F3D0
:1001C000088861B662B670471EF0040F0CBFEFF3EB
:1001D0000880EFF3098020E9F00F40F804ED1EF0ED
:1001E000040F0CBF80F3088880F3098800B506F07F
:1001F0009FFF5DF804EB4EF0040E7047EC2F0020DB
:10020000502D0020582D002004ED00E020ED00E0EE
:100210000000FFFF08ED00E0D2B201E000F8012B82
:10022000491EFBD270470022F6E710B513460A4676
:1002300004461946FFF7F0FF204610BD10B50446EE
:1002400004E00B7800F8013B03B1491C521EF8D2C0
:10025000204610BD421C10F8011B0029FBD1801A5A
:10026000704730B505460020034600E05B1C934212
:1002700005D2EC5CC85C201A01D1002CF6D130BD4F
:10028000F0B480EA0102D40F4200B2EB410F02D277
:100290000246084611464A0042D0C30DDDB2C1F302
:1002A000C752AD1A202D35DAC1F3160141F4000210
:1002B00004B15242C5F1200602FA06F12A41104467
:1002C000B3EBD05F23D0C4B1012DA0EBC35009DC48
:1002D000F0BC4FF0004202EAC352DBB200F500006E
:1002E00000F049BB400000F1807000EBC350A0F16A
:1002F000807040EAD170490009E0490841EAC071C4
:10030000A0EBC35000F50000400800EBC350F0BC68
:1003100000F028BB6142012202EB4101001BF6E71D
:10032000F0BC704781F00041AAE780F00040A7E7E9
:1003300080EA010210B502F00043400022D04A00DA
:100340001FD0010E01EB1261C0F35600C2F356023A
:1003500040F4000042F40002A0FB022000047F39B8
:10036000140400D0401C50EA124001D44000491E41
:10037000C2B20C0604EBD010401C4008802A02D008
:1003800003E0002010BD20F00100002900DA002069
:10039000184310BD30B480EA010202F0004530F08D
:1003A000004221F0004013D090B1C30DD40DC2F330
:1003B0001601C0F31600E41A41F4000140F40002F3
:1003C0007D34914201D3641C00E04900002C02DA24
:1003D00030BC002070474FF400000023914201D34D
:1003E000891A034340084FEA4101F7D151B19142C4
:1003F00002D14FF0004105E002D24FF0010101E0CF
:100400006FF0010103EBC450284430BC00F0AABADD
:100410002DE9FE4F804681EA0300C00F0C46009094
:1004200021F0004123F00045B8EB0200A94105D2BC
:100430004046214690461C460B46024623F00040AB
:10044000104347D0270DC7F30A00C3F30A510290A7
:10045000401A019040286BDAC3F3130040F4801B6C
:100460000098924620B10023D2EB030A63EB0B0BFA
:1004700001985946C0F14002504600F052FA064633
:100480000D4650465946019A00F05AFA10EB080002
:100490006141002487EA115284EAE7731A4340D08D
:1004A000009A62B3019A012A4FEA075215DC001B39
:1004B00061EB02014FF0004202EA0752CDE900422F
:1004C000001C41F5801132462B4600F091FA03B032
:1004D000BDE8F08F40462146F9E7001B61EB0201C1
:1004E000001C41F5801300185B412018A2F500178D
:1004F00047EB030140EAD570B6196D4111E06D0874
:100500004FEA360645EAC0754FEA0752001B61EB19
:100510000201001C41F5801149084FEA3000001922
:10052000514132462B4603B0BDE8F04F00F051BABE
:100530000098012240000023D0EB020263EBE0733D
:10054000009821464FEAE074B8EB000061EB04012B
:10055000E9E783F000435BE781F0004158E72DE9CC
:10056000FE4F81EA030404F0004421F000410094AE
:100570004FF0000B23F0004350EA01045ED052EA32
:1005800003045BD0C3F30A54C1F30A552C44A4F20C
:10059000F3340194A0FB0254C1F3130141F4801120
:1005A000C3F3130343F4801301FB024400FB034E27
:1005B000840A970A44EA815447EA8357A4FB0768F0
:1005C00002958D0A05FB07854FEA932C04FB0C541A
:1005D0002705029D4FEA065847EA1637B5EB08058E
:1005E0006EEB070C870E920E47EA811742EA8312E0
:1005F000A7FB0201B6EB0B0164EB00042B0D43EAF1
:100600000C335E1844EB1C50DA465146E7FB0201FE
:10061000C5F313044FEA0B3343EA14534FEA043291
:10062000019C43EA0603A4F10C040294009CCDE96A
:1006300000B400F0DDF903B0BDE8F08F0020014602
:10064000F9E72DE9F04D81EA030404F0004B21F0B5
:10065000004514464FF0000A23F0004150EA05021D
:1006600020D054EA01021DD0C5F30A570246C5F353
:100670001303C1F31300C1F30A5640F4801543F489
:100680008013A7EB0608101BD64608F2FD3873EB63
:10069000050002D308F1010801E092185B41B8F1AE
:1006A000000F03DA00200146BDE8F08D00204FF472
:1006B0008011064684460EE0171B73EB050705D331
:1006C000121B63EB050306434CEA010C49084FEA91
:1006D000300092185B4150EA0107EDD152EA030065
:1006E00012D082EA040083EA0501084305D0101BFA
:1006F000AB4106D20122002306E000224FF0004366
:1007000002E06FF0010253101AEB06004CEB0851A7
:1007100010EB0A0041EB0B01BDE8F04D00F059B9B8
:10072000002801DBC0F10040002901DBC1F10041DC
:10073000814201D80120704700207047002801DB6A
:10074000C0F10040002901DBC1F10041814201D22A
:100750000120704700207047002801DBC0F10040F5
:10076000002901DBC1F10041814201D30120704722
:1007700000207047002801DBC0F10040002901DBA8
:10078000C1F10041814201D901207047002070472A
:10079000002801DBC0F10040002901DBC1F100416C
:1007A000814201D10120704700207047C10F80EACB
:1007B000E0700844CA079623002100F0DCB89623B5
:1007C0000022114600F0D7B80EB5C10F80EAE070E4
:1007D0000844CA07002140F233438DE80E000A4660
:1007E0000B4600F005F903B000BD0EB540F23341F1
:1007F00002910021CDE900110A460B4600F0F8F8FD
:1008000003B000BD00F0004220F00040C10DC0F375
:10081000160040F400007F2901DA00207047962975
:1008200003DCC1F19601C84001E096398840002AF6
:10083000F4D04042704700F0004230F000400AD04F
:10084000C10D01F56071C0F3160042EA0151C20802
:1008500040071143704700200146704701F00043F4
:1008600030B421F0004150EA010206D00A0DA2F591
:100870006072C1F31301002A02DC30BC0020704713
:10088000440F44EAC104C100E01830BC00EBC25080
:1008900000F068B830B50B46014600202022012444
:1008A00009E021FA02F59D4205D303FA02F5491B3E
:1008B00004FA02F52844151EA2F10102F1DC30BD54
:1008C0002DE9F05F0546002092469B468846064685
:1008D000814640241BE0284641464746224600F018
:1008E00047F953465A46C01A914110D3114618464B
:1008F000224600F016F82D1A67EB01084F462246F3
:100900000120002100F00DF817EB00094E41201ED8
:10091000A4F10104DFDC484631462A464346BDE8DF
:10092000F09F202A04DB203A00FA02F100207047F1
:100930009140C2F1200320FA03F31943904070471D
:10094000202A06DBCB17203A41FA02F043EAE07393
:1009500006E041FA02F3D040C2F120029140084380
:10096000194670470029A8BF7047401C490008BFBE
:1009700020F00100704710B4B0FA80FC00FA0CF0CF
:1009800050EA010404BF10BC704749B1CCF1200407
:1009900021FA04F411FA0CF118BF01212143084394
:1009A000A3EB0C01CB1D4FEA00614FEA102042BFC0
:1009B000002010BC704700EBC35010440029A4BFB6
:1009C00010BC7047401C490008BF20F0010010BC5B
:1009D000704710B5141E73F1000408DA401C41F191
:1009E000000192185B411A4301D120F0010010BDB3
:1009F0002DE9F04D92469B4611B1B1FA81F202E029
:100A0000B0FA80F220329046FFF78BFF04460F4683
:100A100040EA0A0041EA0B0153465A46084313D004
:100A2000114653EA010019D0C8F14002504600F0C7
:100A30009FF805460E46504659464246FFF771FF5D
:100A4000084305D0012004E020463946BDE8F08D7A
:100A50000020054346EAE0762C4337430A986305B5
:100A6000E40AA0EB08000022FD0A44EA47540A30D9
:100A700002D500200146E9E7010510196941DDE9C9
:100A8000084500196941BDE8F04DA2E770B521F0B5
:100A9000004303430CD0C1F30A550024D5EB0405F1
:100AA00064EB0403D617AD1AB34102DB0020014604
:100AB00070BD201841EB025170BDC1F30A52C1F361
:100AC000130140F2FF3341F480119A4202DA002010
:100AD0000146704740F233439A42A2F2334202DCAD
:100AE000524200F045B8FFF71CBF000030B5041EAD
:100AF00071F1000404DB4FF00044404264EB01015B
:100B0000141E73F1000405DB1C464FF000435242F3
:100B100063EB04038B4208BF824230BD30B5041E34
:100B200071F1000404DB4FF00044404264EB01012A
:100B3000141E73F1000405DB1C464FF000435242C3
:100B400063EB0403994208BF904230BD064C074D49
:100B500006E0E06840F0010394E80700984710348D
:100B6000AC42F6D3FFF7C6FA40B1000860B1000806
:100B7000202A04DB203A21FA02F00021704721FAF2
:100B800002F3D040C2F12002914008431946704759
:100B900070B58C1810F8015B15F0070301D110F83F
:100BA000013B2A1106D110F8012B03E010F8016B6C
:100BB00001F8016B5B1EF9D12B0705D40023521EEF
:100BC0000DD401F8013BFAE710F8013BCB1A921C57
:100BD00003E013F8015B01F8015B521EF9D5A14255
:100BE000D8D3002070BD000080B508F03DFB002088
:100BF00080BD000010B582B0152040F67541192463
:100C000000900DA0C0F6000100224FF48073019403
:100C100007F06CFC044640B90AA006F0ABFC0EA03D
:100C200006F0A8FC11A006F0A5FC204602B0BDE825
:100C3000104007F009BE00BF616E616C7973697383
:100C4000000000001B5B33316D5B452F616E616CF2
:100C5000797369735D200000437265617465205487
:100C600061736B204661696C000000001B5B306D96
:100C70000A00000040F21C28C2F20008D8F80C005C
:100C80000021C4F27A41FFF753FBFFF7BBFD40F2AE
:100C9000A40BC2F2000BBBF80010814213D2044631
:100CA000BBF8C800A04211D958460021642223464F
:100CB00006F026F881B23BF81100A0420CD101EBFE
:100CC0008100400016E00020002116E044F20001FF
:100CD000C4F28F01002010E001393BF8112001EB34
:100CE0008101A31A03EB83035B00801A93FBF0F0EE
:100CF00000EB410080B2FFF778FD44F2000AC4F235
:100D00008F0A00225346FFF79CFCFFF7A7FD40F235
:100D10000406C2F200060146706AF160B062FFF795
:100D200007FB40F25409C2F20009F06220E000BF64
:100D3000D6E90A403946FFF7A3FA05462046294678
:100D4000FFF70AFD002818BF2C46F462D6E90A1006
:100D5000FFF720FB4FF07E510446FFF70BFD002804
:100D60004FF47A7018BF4FF07E54F46007F0D8FC4F
:100D7000404699F8047050F80C9F00EBC70050F8FB
:100D8000084C49462046FFF7CDFA002131617061D9
:100D900097B14046DA4608F1300B00203D4600BFCF
:100DA0005BF8041FFFF76CFA013DF9D1D34644F21A
:100DB000000AC4F28F0A30613846FFF700FD31693E
:100DC000024608461146FFF7E5FA3061D8E90050BF
:100DD000D8F80810D8F84870FFF7AAFA06F11801F9
:100DE00081E8110200212846C4F22011FFF7A0FA81
:100DF000FFF708FD40F25409002FC2F200095BD052
:100E000040F21021C2F20001B1F90010814203DA70
:100E1000411A092903DC4FE0091A0A294CDB40F288
:100E20001021F928C2F20001088001DD012117E03C
:100E3000632801DD022113E0B0F1FF3F01DD032152
:100E40000EE000F1C80189B2BE2901D2042107E0F9
:100E500000F5967189B264294FF0060138BF05216B
:100E6000FA38484346F26761C6F2666180FB0101C9
:100E7000880800EBD17000F57A7080B240F2EE2164
:100E8000884298BF084640F21A41884228BF084667
:100E9000FFF795FC716A0246F46808461146FFF7B1
:100EA00047FA0021C4F27A41FFF774FA0146B062B2
:100EB0002046FFF73DFAF06299F80000042848D177
:100EC00041F2883007F02CFCD8F80C000021C4F265
:100ED0007A41FFF72DFAFFF795FCBBF8001081422D
:100EE00014D20446BBF8C800A04212D958460021CB
:100EF0006422234605F004FF81B23BF81100A042B2
:100F00000AD101EB8100400014E000BF0020002165
:100F100013E00020514610E001393BF8112001EBAD
:100F20008101A31A03EB83035B00801A93FBF0F0AB
:100F300000EB410080B2FFF758FC00225346FFF758
:100F400080FBFFF78BFC0146B06AF160FFF7F0F918
:100F5000F062D8F808000021C4F27A41FFF7E8F9FE
:100F6000FFF750FC002848BF4042FFF72DFC00224D
:100F70005346FFF766FB42F200030022C4F2AC03C3
:100F8000FFF75FFBFFF76AFC99F800500746012D59
:100F90003FF4CEAE022D2BD0032D7FF4D7AEDA4630
:100FA00040F25C0BD8F80C40C2F2000BDBF80410E6
:100FB0002046FFF7D1FB60B9DBF80C102046FFF7A5
:100FC000D9FBD34644F2000AC4F28F0A48B9002084
:100FD00006E0D34644F2000A4FF07E50C4F28F0A76
:100FE000F060022D04D0012D3FF4A2AEAEE600BFAA
:100FF000F46A39462046FFF7A1FB08B10024A4E6B5
:1010000020463946FFF78EF904469EE610B547F6AE
:10101000FF70012100F02CFB40F23400C2F200000E
:101020000021818340F2A020C2F20000017041F251
:10103000883007F045FD044607F060FD40F2A4212A
:101040002044C2F2000108604AF20870C0F60000B5
:1010500006F090FA05A006F08DFA4AF2A650C0F606
:101060000000BDE8104006F085BA00BF42616C6127
:101070006E63652054696D657220456E64000000E2
:1010800040F25400C2F200000121C170704700001C
:1010900040F25400C2F2000001214170704700008C
:1010A00040F25400C2F2000001218170704700003C
:1010B000012000F003BD000010B502F0CFF9044696
:1010C00007A006F057FA0EA009A1002C18BF084689
:1010D00006F050FA10A0BDE8104006F04BBA00BF71
:1010E0001B5B33326D5B492F636D645D2000000034
:1010F0004C6F61642044657465637465640000002E
:101100004E6F204C6F616420576173204465746595
:1011100063746564000000001B5B306D0A00000012
:1011200040F25400C2F200000021C170704700007C
:1011300040F25400C2F200000021417070470000EC
:1011400040F25400C2F2000000218170704700009C
:10115000002000F0B3BC000010B582B00D2041F2B9
:10116000D111192400900DA0C0F6000100224FF407
:101170000073019407F0BAF9044640B909A006F0DB
:10118000F9F90CA006F0F6F90FA006F0F3F92046E5
:1011900002B0BDE8104007F057BB00BF636F6D6D34
:1011A000000000001B5B33316D5B452F636F6D6D7D
:1011B0005D200000437265617465205461736B208B
:1011C0004661696C000000001B5B306D0A00000086
:1011D0004FF4FA6007F0A4FAFAE7000010B582B005
:1011E000162041F2A9211924009021A0C0F6000187
:1011F00000224FF40073019407F078F9044670B9A7
:101200004AF2F760C0F6000006F0B4F91AA006F042
:10121000B1F94AF2A650C0F6000006F0ABF920463C
:1012200007F012FB41F20D01042418A0C0F60001E2
:1012300000221423009407F01FFD40F23851C2F23F
:101240000001002808601CBF02B010BD4AF2F76020
:10125000C0F6000006F08EF90EA006F08BF94AF2F7
:10126000A650C0F6000002B0BDE8104006F082B9FA
:10127000656E65726779000043726561746520541C
:1012800061736B204661696C0000000062616C61F3
:101290006E6365004372656174652054696D6572A3
:1012A000204661696C00000082B040F25408C2F22E
:1012B000000898F8010040F21229C2F2000940F239
:1012C000182640F2A42B40F2A02540F2340A89F8F7
:1012D00000004FF4FA70C2F20006C2F2000BC2F234
:1012E0000005C2F2000A002704E000BF012000F060
:1012F000C5F9C82098F8021031700EE0012000F006
:10130000B9F998F8010089F80000307898F80210CF
:1013100088424FF0C80040F0678107F001FADBF81F
:10132000004007F0EBFB844228D2287830BB98F8C5
:10133000030008BB98F8000000F0FD0001281BD155
:1013400098F8047040F21C20C2F2000000EBC700C5
:101350004068DAF81010FFF7FFF958B140F20400C6
:10136000C2F200004069DAF81410FFF7F5F900281E
:1013700040F09380002700BF8AF81E7098F80000A4
:10138000032831D0022811D001284BD140F20400AB
:10139000C2F20000C068DAF80010FFF7CFF90028A9
:1013A00040D1012000F066F9AEA40DE040F2040047
:1013B000C2F20000C068DAF80810FFF7DBF988BB5A
:1013C000012000F05BF9A3A44AF20870C0F6000007
:1013D00006F0D0F8204606F0CDF84AF2A650C0F646
:1013E000000006F0C7F81DE098F8010058B398F81F
:1013F0000200B8B940F25C00C2F20000B0F844004C
:1014000010F4F87F0ED140F20400C2F20000C06870
:10141000DAF80C10FFF784F920B9002000F02EF95B
:1014200088A4D1E799F8001098F8010081423FF4B0
:101430006CAF01283FF462AF98F8000004287FF4F5
:1014400060AF00205BE740F25C00C2F20000B0F841
:1014500044000007CBD19AF81E000128C7D040F203
:101460000400C2F20000C068DAF80410FFF774F953
:101470000028BCD1002000F0FDF84AF20870C0F648
:10148000000006F077F86BA006F074F84AF2A65058
:10149000C0F6000006F06EF8A9E7002F4FF001003B
:1014A0008AF81E0059D040F21C20C2F20000C46825
:1014B00001261CE04AF20870C0F6000006F05AF857
:1014C000791C4FA006F056F84AF2A650C0F600006C
:1014D00006F050F8BAF81C000121B9400843AAF8F8
:1014E0001C00013698F80470F0B2874235D35FFAD9
:1014F00087FBF0B240F21C21ABEB0000C2F200010E
:1015000001EBC007F8682146FEF70CFFDAF814106B
:10151000FFF706F908BB3F7C87B1BAF81C007A1EBA
:101520000123791C03FA02F2594502EA000109D1AC
:10153000B1FA81F040090028D3D0BBE7BAF81C000B
:1015400003E000BF0029CCD1F84000F002000121E7
:1015500081EA50000028C4D0ACE7BAF81C0040F281
:10156000A42B40F218260028C2F2000BC2F200069B
:101570004FF000073FF402AF002100F079F8DAF8ED
:1015800018004FF47A71484307F09AFA40F2385441
:10159000C2F20004216801900846002101AA07F068
:1015A00025FB206807F008FC4AF20874C0F6000426
:1015B000204605F0DFFF16A005F0DCFF4AF2A6503A
:1015C000C0F6000005F0D6FF01202870204605F087
:1015D000D1FF14A005F0CEFF4AF2A650C0F60000DD
:1015E00005F0C8FFCAE600BF01293FF47FAE98F8B6
:1015F000000004284FF0C8007FF47CAE002076E69F
:1016000042616C616E63652043656C6C3A256400D1
:1016100042616C616E63652054696D65722053741C
:101620006172740042616C616E6365205374617213
:1016300074000000537461727420436861726765BE
:101640000000000053746172742044697363686120
:101650007267650053746F702044697363686172C8
:101660006765000053746F7020436861726765009E
:1016700000F0B4BF0146012000F0EABF014602209D
:1016800000F0E6BF00F03AB810B582B041F6C121D3
:1016900019240FA0C0F6000100224FF4007300943B
:1016A000019406F023FF044658B90BA005F062FF31
:1016B0000DA005F05FFF4AF2A650C0F6000005F04D
:1016C00059FF204602B0BDE8104007F0BDB800BF8A
:1016D000696E666F000000001B5B33316D5B452F48
:1016E000696E666F5D200000437265617465205409
:1016F00061736B204661696C000000002DE9F04FBA
:1017000093B04AF25D79C0F60009484605F032FF11
:101710004AF28170C0F6000005F02CFF4AF2A65A8A
:10172000C0F6000A504605F025FF40F20404C2F25C
:101730000004A06AFFF77FF80B464AF61A0103AED1
:101740000246C0F60001304607F0E6FD484605F0C7
:1017500011FF4AF67705C0F600052846314605F028
:1017600009FF504605F006FFE06AFFF764F80B46F4
:101770004AF63A010246C0F60001304607F0CCFDB9
:10178000484605F0F7FE2846314605F0F3FE504680
:1017900005F0F0FE4AF67D58C0F60008404605F018
:1017A000E9FEE0680021C4F2C821FEF7C1FDFFF7A1
:1017B00042F80B464AF26B710246C0F60001304611
:1017C00007F0AAFD484605F0D5FE2846314605F04B
:1017D000D1FE504605F0CEFE404605F0CBFEE06956
:1017E000FFF729F80B464AF2EB710246C0F60001FA
:1017F000304607F091FD484605F0BCFE28463146CC
:1018000005F0B8FE504605F0B5FE206AFFF713F864
:1018100002460B4685A1304607F07EFD484605F09E
:10182000A9FE2846314605F0A5FE504605F0A2FE69
:101830006069FFF700F80B464AF2C6710246C0F62F
:101840000001304607F068FD484605F093FE284643
:10185000314605F08FFE504605F08CFE2069FEF7FC
:10186000EAFF02460B4678A1304607F055FD484690
:1018700005F080FE2846314605F07CFE504605F016
:1018800079FEA069FEF7D7FF02460B4676A13046E7
:1018900007F042FD484605F06DFE2846314605F04A
:1018A00069FE504605F066FE404605F063FE40F2D4
:1018B0001C27C2F200077868FEF7BDFF02460B4600
:1018C00070A1304607F028FD484605F053FE284633
:1018D000314605F04FFE504605F04CFEB868FEF765
:1018E000AAFF02460B466EA1304607F015FD48469A
:1018F00005F040FE2846314605F03CFE504605F016
:1019000039FEB86C70B34AF605084AF25D794AF6BA
:10191000770A4AF2A65B0021C0F6000803ADC0F6C4
:101920000009C0F6000AC0F6000B002457F8210099
:101930004E1CFEF780FF0B4600902846414632467B
:10194000019307F0E9FC484605F014FE504629468D
:1019500005F010FE584605F00DFE0134B86CE1B2FA
:101960008842E3D84AF67D50C0F6000005F002FE3A
:1019700040F25408C2F2000898F80400002840D051
:101980004AF25D794AF6770B4AF2A65430370026C0
:1019900003ADC0F60009C0F6000BC0F6000400BF9E
:1019A00057F8040F06F1010AFEF745FF40F2340232
:1019B000C2F20002928B4AF2C173F240D207C0F623
:1019C00000034AF6BD42C0F6000208BF1346CDE947
:1019D00000014AF65C012846C0F600015246029317
:1019E00007F09AFC484605F0C5FD5846294605F023
:1019F000C1FD204605F0BEFD98F80400564682451C
:101A0000CED34AF25D70C0F6000005F0B3FD4AF295
:101A10001970C0F6000005F0ADFD4AF2A650C0F600
:101A2000000005F0A7FD13B0BDE8F08F43656C6CB6
:101A3000204D696E20566F6C74616765203D2025CE
:101A4000302E33665600000043656C6C204176658D
:101A50007261676520566F6C74616765203D202553
:101A6000302E33665600000042617474657279202E
:101A70005265616C20506F776572203D2025302EB5
:101A8000336657004261747465727920566F6C74C6
:101A9000616765203D2025302E336656000000002A
:101AA000426174746572792043757272656E742038
:101AB0003D2025302E3366410000000070470000B5
:101AC00040F6004440F20408C4F20104C2F20008E7
:101AD0001DE000BF012201270126012520464021EB
:101AE00002F004FA204680213A4602F0FFF920462F
:101AF0004FF48071324602F0F9F920464FF400713C
:101B00002A4602F0F3F94FF4FA6006F009FED8F81D
:101B10000C5000212846FEF73BFE0028DAD128466B
:101B20004FF07A51FEF7FCFDA8B928464FF07C51E2
:101B3000FEF7F6FDA0B928464FF07D51FEF7F0FD07
:101B400090B928464FF07E51FEF714FE0028DAD1F6
:101B5000002200270AE00025012201270126BDE717
:101B600000260122012702E000270122002600258D
:101B7000B4E7000040F2B620C2F20000012101707B
:101B80007047000010B582B0132041F6FD311924D2
:101B900000900EA0C0F6000100224FF400730194E3
:101BA00006F0A4FC044658B90AA005F0E3FC0EA018
:101BB00005F0E0FC4AF2A650C0F6000005F0DAFCA1
:101BC000204602B0BDE8104006F03EBE6D6F6E6963
:101BD000746F72001B5B33316D5B452F6D6F6E69E7
:101BE000746F725D2000000043726561746520545B
:101BF00061736B204661696C0000000040F2B02503
:101C000040F254074DF20A794DF20A7A4FF6067BFC
:101C1000C2F200054FF00008C2F20007C3F6A34964
:101C2000CBF6A34A05E003202070FA2006F078FDE9
:101C3000274640F2B520C2F200002988007801F161
:101C4000FA0201282A8007D0594505D201F0D8FBB5
:101C5000A5F8008004E000BF002818BFA5F80080A8
:101C600040F2AC2340F2B320C2F20003C2F2000003
:101C70001988007801F1FA0201281A8004D0594528
:101C800002D201F071FB00E028B140F2AC20C2F2B8
:101C90000000A0F8008040F2AE2240F2B420C2F270
:101CA0000002C2F2000011880078FA310128118088
:101CB00006D089B2B1F5FA6F02D301F063FB00E000
:101CC00028B140F2AE20C2F20000A0F8008040F23D
:101CD000B620C2F20000007801280DD140F2B220F7
:101CE000C2F20000007838B901F030FB40F2B620B3
:101CF000C2F2000080F8008040F26C20C2F20000C6
:101D00000178387881421FD00138C1B203290FD839
:101D100040B262A151F8206064A005F02BFC30466F
:101D200005F028FC4AF2A650C0F6000005F022FC9F
:101D300040F26821C2F200013878C1F8008040F218
:101D40006C21C2F20001087038783C460138032843
:101D50003FF66BAFDFE800F002203E7440F21C203B
:101D6000C2F20000866849463046FEF7F5FC0028BE
:101D70007FF45BAF304651465746FEF7FBFC002828
:101D80007FF451AF30463946FEF7F4FC00287FF46B
:101D90004CAF022048E700BF40F21C20C2F2000016
:101DA000866851463046FEF7BBFC00287FF43DAF05
:101DB000304649464F46FEF7C1FC00287FF433AF5A
:101DC00030463946FEF7BAFC00287FF42EAF0120DA
:101DD0002AE700BF40F21C20C2F200008668494694
:101DE0003046FEF7B9FC074630465146FEF798FCF0
:101DF00038431CBF0120002809D030464946FEF771
:101E0000ABFC00284FF0020018BF0120207040F208
:101E10006821C2F2000108684EF68062FA30C0F212
:101E2000360290420860FFF400AF40F23400C2F284
:101E30000000807F01283FF4F8AE0420F4E600BFE4
:101E400040F21C20C2F20000866849463046C8466F
:101E5000FEF782FC074630465146FEF761FC57EA22
:101E6000000B5F463046494618BF01274FF0000877
:101E7000FEF772FC00284FF0020040F2B02518BFB8
:101E80000120BBF1000FC2F200054FF6067B3FF4C4
:101E9000CCAE002F18BF2070C7E600BFACA500086D
:101EA000C5A50008F9A50008E1A500081B5B3332B1
:101EB0006D5B492F6D6F6E69746F725D200000005D
:101EC00080B54AF22560C0F6000005F053FB05A07E
:101ED00005F050FB4AF2A650C0F60000BDE8804075
:101EE00005F048BB424D535F50726F746563744890
:101EF000774465766963650010B540F25C04C2F210
:101F00000004B4F84400800648BF10BD0120FFF76C
:101F1000B5FBB4F8440040F02000A4F844004AF2B5
:101F20002560C0F6000005F025FB05A005F022FBAA
:101F30004AF2A650C0F60000BDE8104005F01ABBFA
:101F40004469736368617267653A4F434420507215
:101F50006F746563742054696767657200000000E0
:101F600010B540F25C04C2F20004B4F84400C007AB
:101F700018BF10BD0120FFF77DFBB4F8440040F00E
:101F80000100A4F844004AF22560C0F6000005F004
:101F9000F1FA05A005F0EEFA4AF2A650C0F60000EC
:101FA000BDE8104005F0E6BA4368617267653A4FD4
:101FB000562050726F746563742054696767657248
:101FC0000000000080B54AF22560C0F6000005F070
:101FD000D1FA05A005F0CEFA4AF2A650C0F60000EC
:101FE000BDE8804005F0C6BA424D535F50726F7431
:101FF00065637448774F76726400000010B540F254
:102000005C04C2F20004B4F84400400648BF10BDAE
:102010000120FFF733FBB4F8440040F04000A4F87F
:1020200044004AF22560C0F6000005F0A3FA05A0BE
:1020300005F0A0FA4AF2A650C0F60000BDE8104034
:1020400005F098BA4469736368617267653A5343EF
:10205000442050726F7465637420546967676572B9
:102060000000000010B540F25C04C2F20004B4F8B5
:102070004400C00648BF10BD0120FFF7FFFAB4F8C6
:10208000440040F01000A4F844004AF22560C0F675
:10209000000005F06FFA05A005F06CFA4AF2A650B0
:1020A000C0F60000BDE8104005F064BA44697363EF
:1020B00068617267653A55562050726F7465637433
:1020C000205469676765720010B582B0142042F22F
:1020D0004111192400900EA0C0F6000100224FF417
:1020E0008073019406F002FA044658B90AA005F07C
:1020F00041FA0EA005F03EFA4AF2A650C0F60000E2
:1021000005F038FA204602B0BDE8104006F09CBB4E
:1021100070726F74656374001B5B33316D5B452FA8
:1021200070726F746563745D2000000043726561B6
:102130007465205461736B204661696C0000000077
:1021400040F2540A40F21C2940F25C084AF2A656BA
:102150004AF2136740F21424C2F2000AC2F20009E4
:10216000C2F20008C0F60006C0F60007C2F2000482
:102170000CE000BF384605F0FDF9584605F0FAF9C5
:10218000304605F0F7F9C82006F0CAFA9AF80000C0
:10219000022829D0012840F08E80D9F80800D8F80C
:1021A0001410FEF7BDFAD0BB206844F6D351C830F6
:1021B000C1F26201A0FB011298F822102060B1EB7D
:1021C000921F78D80120FFF755FA0220A8F84400A2
:1021D0004AF22560C0F6000005F0CCF94AF2DD6055
:1021E000C0F6000062E000BFD9F84800002862D0C5
:1021F00009EB800050F8040CD8F82C10FEF790FA88
:1022000040BB0120FFF73AFA8020A8F844004AF2C8
:102210002560C0F6000005F0ADF9B4A046E0D9F89D
:102220004800002847D009EB800050F8040CD8F88B
:102230002410FEF775FA18BB0120FFF71BFA0420E3
:10224000A8F844004AF22560C0F6000005F092F9B3
:10225000B5A02BE0D9F80000D8F83C10FEF77CFAC6
:1022600048BB0120FFF70AFA4FF48070A8F8440039
:102270004AF22560C0F6000005F07CF993A015E055
:10228000D9F80000D8F83410FEF766FA002840F0BC
:1022900019810120FFF7EEF90820A8F844004AF25E
:1022A0002560C0F6000005F065F998A005F062F918
:1022B000304605F05FF9B8F84450002D3FF463AFA5
:1022C000E8072BD1680736D4280748D4A80762D579
:1022D00040F27023C2F20003186844F6D351C830AC
:1022E000C1F26201A0FB011298F823101860B1EB53
:1022F000921F50D840F27020C2F20000002101600D
:102300009AF8010025F00201A8F84410FFF7B2F98D
:102310004AF23765C0F6000534E000BFD9F82C005A
:10232000D8F80810FEF718FAA8BB25F00100A8F8A5
:10233000440084A526E0D9F80000D8F82810FEF75C
:102340000BFA40BB9AF8010025F00401A8F84410EC
:10235000FFF790F94AF25D65C0F6000512E0D9F882
:102360000000D8F83810FEF7DBF9A0B99AF80100A0
:1023700025F00801A8F84410FFF77CF94AF24A65F5
:10238000C0F60005384605F0F5F8284605F0F2F8E5
:10239000304605F0EFF8B8F84450E8062ED4280689
:1023A0003ED4E80552D4A80666D468067FF5EBAEA5
:1023B00040F27423C2F20003186844F6D351C830C7
:1023C000C1F26201A0FB011298F821101860B1EB74
:1023D000921F3FF6D8AE40F274210020C2F20001F5
:1023E00008609AF8020025F04001A8F84410FFF7B1
:1023F00045F94AF2866BC0F6000BBBE6D9F80C0033
:10240000D8F81010FEF78CF900287FF4BCAE25F048
:1024100010004AF2C86BA8F84400C0F6000BA9E609
:10242000D9F80000D8F83010FEF796F900287FF4AC
:10243000AAAE9AF8020025F08001A8F84410FFF730
:102440001DF94AF2B26BC0F6000B93E6D9F8000012
:10245000D8F84010FEF764F900287FF494AE9AF89B
:10246000020025F48071A8F84410FFF707F94AF23A
:102470009C6BC0F6000B7DE640F27423C2F20003B1
:10248000186844F6D351C830C1F26201A0FB0112B2
:1024900098F820101860B1EB921F3FF674AE40F22E
:1024A00074210020C2F2000108609AF8020025F0B1
:1024B0002001A8F84410FFF7E1F84AF2706BC0F66B
:1024C000000B57E600202060F5E600BF4469736307
:1024D00068617267653A4C54442050726F7465634A
:1024E0007420546967676572000000004469736373
:1024F00068617267653A4F54442050726F74656327
:102500007420546967676572000000004368617257
:1025100067653A4C54432050726F7465637420545D
:1025200069676765720000004368617267653A4FCA
:1025300054432050726F74656374205469676765F3
:10254000720000004368617267653A4F5620526519
:102550006C6965766500000080B58AB041F6F96067
:10256000C0F60000019041F6FD70C0F60000029038
:1025700041F66170C0F60000039042F26500C0F6BB
:102580000000049041F67530C0F60000079041F657
:10259000C160C0F60000069041F6C570C0F60000AC
:1025A000059040F20150C0F20110089040F61C4026
:1025B000C1F26800099002F097FB01A800F058F8FA
:1025C000FFF7E0FAFFF780FDFEF714FBFEF706FECB
:1025D000FFF75AF8FEF7C0FD0AB080BD10B540F213
:1025E00078220129C2F2000213D039BB137800F01F
:1025F0001F0192F801C0194392F802E01170C0F374
:10260000441141EA0C01C0F38420517040EA0E00ED
:1026100013E04FF0E00C11786CEA000392F801E04F
:10262000194011706CEA501101EA0E019478517052
:102630006FF01F0161EA90202040907040F27821F5
:10264000C2F2000101200322BDE8104000F080BD6D
:1026500040F2BC22C2F200020029517914BF21EAE3
:10266000000341EA0003D9B20520537100F006BE11
:102670002DE9F04F85B00446042000214FF0000AF8
:1026800000F0FCFD042001214FF0010800F0F6FDF0
:102690000420022100F0F2FD4FF4FA7006F040F839
:1026A00040F600054FF4004701A8C4F2010580E898
:1026B0008005032601A92846049601F007FB284659
:1026C0004FF40041012201F011FC4FF47A7006F042
:1026D00027F828464FF40041002201F007FC01A929
:1026E0002846CDE9017ACDE903A601F0EFFA4FF4CF
:1026F0007A7006F015F840F2BC29C2F2000909F11F
:102700003401502000F012FA09F13601592000F08E
:102710000DFA09F13501512000F008FA99F834005A
:1027200099F8361000F00C00400040EA511000F219
:102730006D163046FEF748F844F20003C4F28F03EA
:102740000022FDF77EFFFEF789F8824640F2B820AE
:10275000C2F20000C0F800A040F2A440C2F20000A3
:10276000068099F935B040F2F010C2F2000004F191
:10277000080540F2F41780F800B02ECDD4E90060CF
:10278000C2F2000707F1080C8CE82E00C7E90060D0
:10279000A06999F80610B861022060F30201227F57
:1027A00099F8070089F8061001F0E20162F3C4010C
:1027B00068F3030089F80610617F89F8070000F0CC
:1027C000810061F3061089F8070099F80800A17FDD
:1027D00000F03F0040EA8110E17F89F8080000F036
:1027E000CF0061F30510618C89F80800A1EB0B00A4
:1027F000FDF7DCFF5146FDF7CDFDFEF703F800F6CF
:10280000F870218C000989F80900A1EB0B00FDF795
:10281000CDFF5146FDF7BEFDFDF7F4FF000989F835
:102820000A0044F218004C4624F8040F1920E07105
:1028300004202146082200F08BFC01A90420082274
:1028400000F09CF89DF80400217800F07F00884299
:1028500038D19DF8050099F80510884232D19DF8CD
:10286000060099F8061088422CD19DF8070099F8C7
:102870000710884226D19DF8080099F80810884270
:1028800020D19DF8090099F8091088421AD19DF8C5
:102890000A0099F80A10884214D19DF80B0099F8A3
:1028A0000B1088420ED11DA004F064FE20A004F09D
:1028B00061FE4AF2A650C0F6000004F05BFE05B0CF
:1028C000BDE8F08F4AF67A00C0F6000004F052FE30
:1028D00005A004F04FFE4AF2A650C0F6000004F036
:1028E00049FE00BFFEE700BF42513736395830205D
:1028F000636F6E66696720726567697374657220BD
:102900006661696C2C506C656173652072657365D6
:102910007420424D5320626F617264001B5B33323E
:102920006D5B492F627137363932305D200000000F
:102930004251373639583020496E697469616C6983
:102940007A65207375636365737366756C21000027
:1029500010B540F2BC24C2F20004211D042000F096
:1029600075F96079012121EA000094F90410002230
:10297000002948BF0122104010BD00002DE9F0479A
:1029800092B08DF8470000201090CDE90E00CDE9FF
:102990000C00CDE90A00CDE90600CDE90800CDE93B
:1029A00003008DF80E000DF1470001900820ADF8EE
:1029B000180001208DF81E0009A88A4608210590FC
:1029C0005000C0F20101ADF81A0040F274109146B7
:1029D0000291C2F2000001A9022202F0EDF90228E0
:1029E00053D19DF824C011200DF14501002202238E
:1029F00007268DF845008DF846C000BF0F7880206F
:102A000055B25400002D48BF86EA4204384222469F
:102A100018BF82F007024008F2D1013B180601F10D
:102A20000101EBD19DF82500D1B2814230D1B9F13D
:102A3000020F4FF001008AF800C023D309AB072131
:102A40000FF2C4089C4600BF1CF8026F80270025C7
:102A50006AB26C00002A48BF81EA4504374218BFB9
:102A600084F007047F082546F2D1DA78E3B2934276
:102A700010D19CF8002001300AF8012F4845634628
:102A8000E2D3012012B0BDE8F0870FF2300801E078
:102A90000FF24C084AF67A00C0F6000004F06AFD16
:102AA000404604F067FD4AF2A650C0F6000004F06C
:102AB00061FD002012B0BDE8F08700BF526561647F
:102AC00020526567697374657220426C6F636B2076
:102AD0005769746820435243204361696C000000C9
:102AE0005265616420526567697374657220426C37
:102AF0006F636B20435243203120436865636B2032
:102B00004661696C0000000052656164205265678F
:102B1000697374657220426C6F636B20435243206B
:102B2000436865636B204661696C00002DE9F041E4
:102B30008AB08DF827000020CDE90600CDE902001B
:102B40008DF80A000DF1270000900820C0F2020065
:102B500005900120884608218DF81A000DF1250006
:102B6000C0F20101049040F274100191C2F2000021
:102B70006946022202F020F9022829D111219DF88C
:102B800025C08DF823100DF1230100220223072414
:102B90008DF824C00D78802657B25000002F48BF12
:102BA00084EA42002E42024618BF82F007027608ED
:102BB000F2D1013B180601F10101EBD19DF826008D
:102BC000D1B281420CD188F800C00AB0BDE8F081D2
:102BD0004AF67A00C0F6000004F0CCFC09A006E03A
:102BE0004AF67A00C0F6000004F0C4FC0EA004F01F
:102BF000C1FC4AF2A650C0F6000004F0BBFC0AB0CB
:102C0000BDE8F0815265616420526567697374653F
:102C100072204279746520576974682043524320BA
:102C20004661696C0000000052656164205265676E
:102C3000697374657220427974652043524320435E
:102C40006865636B204661696C0000002DE9F04106
:102C50008AB08DF827000020CDE90600CDE90200FA
:102C60008DF80A000DF1270000900820C0F2040042
:102C700005900120884608218DF81A000DF12300E7
:102C8000C0F20101049040F274100191C2F2000000
:102C90006946022202F090F8022845D111219DF8E0
:102CA00023C08DF821100DF12101002202230724F9
:102CB0008DF822C00D78802657B25000002F48BFF3
:102CC00084EA42002E42024618BF82F007027608CC
:102CD000F2D1013B180601F10101EBD19DF824006E
:102CE000D1B2814228D19DF82510802200250723EA
:102CF00068B26E00002848BF83EA45060A4218BF42
:102D000086F0070652083546F2D19DF82600F1B24A
:102D1000814224D19DF825004CEA0020A8F800004B
:102D200001200AB0BDE8F0814AF67A00C0F6000042
:102D300004F020FC0CA006E04AF67A00C0F6000081
:102D400004F018FC11A004F015FC4AF2A650C0F6DD
:102D5000000004F00FFC00200AB0BDE8F08114A0D0
:102D600004F008FC16A0F4E7526561642052656720
:102D7000697374657220576F726420576974682094
:102D8000435243204661696C000000005265616453
:102D900020526567697374657220576F72642043AF
:102DA0005243203120436865636B204661696C00A3
:102DB0005B42513736395830204552524F525D00F0
:102DC0005265616420526567697374657220576F3C
:102DD000726420435243203220436865636B20466F
:102DE00061696C0D0A000000B0B540F2BC24C2F26B
:102DF000000404F12A012A20FFF728FF70B94AF6DF
:102E00007A00C0F6000004F0B5FB1BA004F0B2FB92
:102E10004AF2A650C0F6000004F0ACFB40F2B82025
:102E2000618DC2F2000000684CBA4FF08141FDF79D
:102E30007FFA05462046FDF7B9FC01462846FDF716
:102E400077FA044640F2F010C2F2000090F9000058
:102E500040F27C2500EB8000C2F20005FDF7A6FCE5
:102E600001462046FDF70CFA0021C4F27A41FDF735
:102E700091FAE861B0BD00BF55706461746520428D
:102E800061747465727920566F6C74616765204651
:102E900061696C002DE9F04740F2BC24C2F20004E5
:102EA00004F10C010C200A22FFF768FD70B94AF604
:102EB0007A00C0F6000004F05DFB1EA004F05AFB8F
:102EC0004AF2A650C0F6000004F054FB40F2A440C1
:102ED000C2F20000058840F2F010C2F2000090F942
:102EE000006044F6D35944F2000840F27C2A04F111
:102EF0000A076FF00304C1F26209C4F28F08C2F23C
:102F0000000A00BF37F8020F40BA6843A0FB09016E
:102F100006EB9110FDF769FC00224346FDF791FB9B
:102F2000FDF79CFC0AEB04010434102C4860E9D145
:102F3000BDE8F0875570646174652043656C6C2052
:102F4000566F6C74616765204661696C0000000013
:102F500010B540F2BC24C2F2000404F13201322068
:102F6000FFF774FE70B94AF67A00C0F6000004F06C
:102F700001FB1DA004F0FEFA4AF2A650C0F60000C4
:102F800004F0F8FA94F9321094F83300CAB240EA27
:102F90000220424292B2002948BF5042FDF714FC81
:102FA00047F6E1224EF24713CAF61462C4F2200338
:102FB000FDF7D5FA47F6E123C3F674734FF080426C
:102FC000FDF73FFB4EF68D524CF2F763CAF2B502A5
:102FD000C3F6B063FDF7C3FAFDF740FC40F27C2175
:102FE000C2F20001886110BD5570646174652043B0
:102FF000757272656E74204661696C00F0B581B0BF
:1030000040F2F420C2F20000017801291CD1002115
:1030100001700420182100F031F988B94AF67A00CD
:10302000C0F6000004F0A6FA4AF68C00C0F60000D4
:1030300004F0A0FA4AF2A650C0F6000004F09AFA92
:103040004FF4FA6005F06CFB40F2BC24C2F20004BD
:1030500004F12C012C200222FFF790FC88B94AF6DB
:103060007A00C0F6000004F085FA4AF68C00C0F63B
:10307000000004F07FFA4AF2A650C0F6000004F007
:1030800079FAA08D40BAFDF79FFB47F6790240F62A
:10309000E503C8F2CF12C3F63973FDF760FAFDF706
:1030A000DDFB44F20004C4F21C6421460546FDF732
:1030B0003FF9FDF7C0FB064628460F46FDF7BBFB70
:1030C0000B4646F266610246C4F20A014FF06630D2
:1030D000FDF73FFA02460B4630463946FDF7B1FA96
:1030E000FDF7BCFB2146FDF755F9FDF7A4FB06F003
:1030F00001FE4DF60043C4F2AE030022FDF7A1FA33
:1031000047F6E113C3F66B734FF06042FDF780F9A9
:103110000B4600210246C3F6F0710020FDF791FA3C
:1031200041F26623CCF271034FF0C042FDF770F913
:103130000023C3F6E0730022FDF76AF9FDF78EFB6A
:1031400040F27C21C2F20001486101B0F0BD0000F4
:103150002DE9F0438DB000251024CDE905558DF8FB
:1031600014400C780DF1140ECDE90B55CDE909553D
:10317000CDE907550EF1010C8DF816404FF003080C
:103180000724F146CDE90355CDE901558DF8150029
:1031900099F80060802700BF68B26B00002848BF24
:1031A00084EA450337421D4618BF85F007057F08AE
:1031B000F2D1A8F101085FEA086009F10109E7D13D
:1031C000022A8DF817501ED30EF1030E4FF001089E
:1031D000072000BF11F8015F802600248EF80150FF
:1031E00067B26300002F48BF80EA44032E421C46AA
:1031F00018BF84F007047608F2D108F10108904561
:103200000EF8024FE6D30820ADF8080000208DF834
:103210000E0050000130ADF80A0040F27410C2F206
:10322000000001A90122CDF804C001F0C5FD01286C
:103230000ED04AF67A00C0F6000004F09BF906A012
:1032400004F098F94AF2A650C0F6000004F092F992
:103250000DB0BDE8F08300BF5772697465205265F8
:1032600067697374657220426C6F636B2057697471
:103270006820435243204661696C000070B586B0F7
:1032800010230DF1140C00228DF814308DF8150068
:103290004FF0030E07236046CDE90322CDE901225A
:1032A0008DF816100478802155B25600002D48BFC5
:1032B00083EA42062142324618BF82F007024908DB
:1032C000F2D1AEF1010E5FEA0E6100F10100E9D129
:1032D0000820C0F20300029000208DF80E000CF1CF
:1032E0000100019040F274108DF81720C2F2000026
:1032F00001A9012201F060FD044601280ED04AF622
:103300007A00C0F6000004F035F907A004F032F9A5
:103310004AF2A650C0F6000004F02CF9601EB0FA84
:1033200080F0400906B070BD57726974652052651F
:10333000676973746572204279746520576974688F
:1033400020435243204661696C00000080B5FFF7BE
:10335000FFFD40F27C20C2F20000806940F21C2197
:10336000C2F20001886080BD80B5FFF73DFD40F2EC
:103370007C20C2F20000C06940F21C21C2F20001B0
:10338000486080BD2DE9F047FFF738FE40F2540059
:10339000C2F20000447940F21C28C2F200082CB3AB
:1033A00040F27C20C2F2000040F2000A40F2000924
:1033B00000F114050026CCF25C2AC4F2FA2903E0DD
:1033C000013C05F1040512D02F6851463846FDF73F
:1033D000B5F90028F4D138464946FDF7CBF9002865
:1033E00002BFF0B2013648F82070E9E70026F1B2DA
:1033F0004046C8F84810BDE8F04700F031B800007A
:1034000010B5FFF747FD40F25400C2F20000017909
:1034100040F21C2CC2F2000CA1B140F27C20C2F29E
:103420000000A0F1040E0CF130030CF104000022A6
:103430005EF8044F43F8044F40F8084F42600132F1
:103440009142F5D145F251630CF10C00C0F6000336
:103450000822BDE8104000F02FB80000FFF778BA4E
:103460002DE9F04F81B0022922D38946A1F1010B49
:1034700000F104084FF0010A01244746BBF1010F97
:1034800088BF5C4657F8045C3E6828463146FDF725
:1034900047F9002804BF47F8046C3D60013C07F180
:1034A0000407EFD10AF1010ACA45ABF1010BE3D1E0
:1034B00001B0BDE8F08F00002DE9F04F81B0154656
:1034C00002290A46009131D3DDF800A01C4681464E
:1034D0004FF0010B05E000BF00980BF1010B834595
:1034E00024D0AAF1010A56464FF000084F46BAF11F
:1034F000010F4FF0010098BF064602E0B0452F448F
:10350000EAD008FB059008F1010808FB0591A047E7
:10351000002DF3D00128F1DB78190021425C7B5C9F
:103520007A54435401318D42F8D1E7E701B0BDE848
:10353000F08F0000FEE7000040F2CC30C2F2000045
:1035400000F09CB8704700004FF4805000F0B2BB10
:10355000EFF3108072B600BFFEE700007047000076
:1035600010B590F82040013C012C0CD8D0F800C0D8
:1035700079B1DCF81040A4070FD100F1240101203B
:103580004FF4001270E000F1240101204FF480227A
:103590006AE0DCF80C40A4076AD0046804EB011C64
:1035A000DCF8B0410CF5D87E14F004049460DCF82B
:1035B000B04119BFE4085460640D1460DEF80040A7
:1035C000002904F00204D460DCF8B44104F00F04D4
:1035D0001461DCF8B441C4F307249461DCF8B4410D
:1035E0004FEA14445461DCF8B8211A70026802EB07
:1035F0000112D2F8B8214FEA12225A70026802EB87
:103600000112D2F8B8214FEA12429A70026802EB16
:103610000112D2F8B8214FEA1262DA70026802EBA6
:103620000112D2F8BC211A71026802EB0112D2F821
:10363000BC214FEA12225A71026802EB0112D2F841
:10364000BC214FEA12429A71026802EB0112D2F8D1
:10365000BC214FEA1262DA71006814BF00F1100158
:1036600000F10C01002020220B681A430A6010BDF3
:1036700000F1240101204FF40012F5E72DE9F04F8D
:1036800081B0044600684669D0F804908768D0F895
:103690000CB0D0F810A0D0F81880F10703D10025A5
:1036A00030071CD423E0F90710D00121BA0781604C
:1036B00009D4780700F1AA80380700F1B0802046CD
:1036C00000F01CFA02E0204600F01AFA0025F80586
:1036D00000F18480F80300F1AA80300707D51BF0C1
:1036E000100004D0206845F400751021C1607007F7
:1036F00008D51BF0080005D020680821C1602046CD
:1037000000F0A8F9B00706D52068C068800702D08D
:10371000204600F0A1F9700607D51AF0100004D079
:10372000206845F4806510210161B00608D51AF0C3
:10373000080005D0206808210161204600F0D8F972
:10374000F00606D520680069800702D0204600F008
:10375000D1F9B00308D519F0100005D02068102168
:103760004160204600F0C8F9F00308D519F00800C0
:1037700005D0206808214160204600F0CBF93004D4
:1037800040F18F805FEA497040F1888006F48070D4
:1037900008EA102028435FEA8871014648BF41F0DB
:1037A0000201B20558BF01465FEA48700D4648BFA6
:1037B00045F00405700558BF0D4630056ED518F06C
:1037C00070006BD010380009052862D8DFE800F0DF
:1037D000035356595C5F45F008055AE020684FF4E2
:1037E0008071BA0581600AD4780512D4380519D4DD
:1037F000204600F087F9F8037FF56FAF17E0204609
:1038000000F082F9F8037FF568AF10E04FF400652F
:103810005DE705F50055F8037FF55FAF07E04FF46E
:10382000805554E705F58045F8037FF556AF2068CD
:103830004FF48031BA0381600AD478030FD438037F
:1038400013D4204600F062F930073FF548AF4EE749
:10385000204600F05DF930073FF541AF47E705F539
:10386000004530073FF53BAF41E705F580353007B0
:103870003FF535AF3BE745F010050AE045F0200580
:1038800007E045F0400504E045F0800501E045F41F
:1038900080752068816921F07001816120680421B0
:1038A00041604DB1606A40EA05012046616201B0A5
:1038B000BDE8F04FFFF752BE01B0BDE8F08F000049
:1038C000B0B5C8B1044690F8200010B9204600F009
:1038D00071F82068016841F00101016000F00CFB03
:1038E000054600BF20684168C90707D100F004FB06
:1038F000401B0B28F6D312E00120B0BD016821F077
:103900000201016000F0F8FA054600BF2068416836
:1039100089070DD500F0F0FA401B0B28F6D3606A3A
:10392000052140F400306062012084F82010B0BD11
:10393000217E0268012922F0800208BF80320260E5
:10394000617E0268012922F0400208BF4032026015
:10395000A17E0268012922F0200208BF2032026005
:10396000E17E0268012922F0100218BF10320260C5
:10397000217F0268012922F0080208BF0832026094
:10398000617F0268012922F0040208BF043202604C
:10399000D4E901C2D4E9033561691A432A431143CA
:1039A000ACF101021143C16100200121606284F881
:1039B0002010B0BDB0B586B040F60004C4F20104DA
:1039C0000068A4F52442002190420591CDE903113D
:1039D000029101D006B0B0BD41F21800C4F202005D
:1039E000426802AD42F000724260426802F000722A
:1039F0000192019A026842F004020260006800F03D
:103A00000400019001984FF40060CDE90201049197
:103A10002046294600F05AF94FF4805002900220C7
:103A20000390032005902046294600F04FF914200A
:103A30000021002200F0D8FA142000F0C5FA152069
:103A40000221022200F0D0FA152000F0BDFA06B0E3
:103A5000B0BD00007047000010B592B009AA10ABCD
:103A60000021FFF77DFD08B116A419E009AB0FCBCB
:103A70008DE807000D982422CDE90330DDE90E0121
:103A8000CDE90501DDE91010089040F2A820C2F24E
:103A9000000000680791694603F032FF78B10FA477
:103AA0004AF6BB00C0F6000003F064FD204603F0B8
:103AB00061FD4AF2A650C0F6000003F05BFD12B0B3
:103AC00010BD00BF63616E2072656164206D657317
:103AD00073616765206572726F72000063616E20AA
:103AE00073656E64206D71206572726F72000000E4
:103AF00070470000704700007047000070470000EA
:103B000070470000704700007047000070470000D9
:103B10007047000070470000014690F8210002281D
:103B200013D10868D1E90FC3026822F00E020260C7
:103B3000026822F001020260012000FA03F2CCF8D0
:103B4000042081F82100002002E004208863012085
:103B5000002281F82020704780B590F821100229BA
:103B600023D10268116821F00E0111602F21136822
:103B7000C4F202018A4240F20401C4F2020123F0BD
:103B80000103136015DD3023C4F202039A421CD0F6
:103B90004423C4F202039A421AD05823C4F2020307
:103BA0009A421AD14FF480331FE00421816301202F
:103BB00080BD0823C4F202039A420CD01C23C4F235
:103BC00002039A4209D110230FE04FF480730CE0F6
:103BD0004FF4805309E0012307E001F1680C4FF036
:103BE0008073624508BF4FF480130B60416B4FF444
:103BF0008072028401B18847002080BDB0F5805FEB
:103C000018BF704770B582B000240DF10701002085
:103C10008DF80740FEF78AFF9DF8076040F2F41523
:103C2000F007C2F2000520D1B00725D470072AD4CE
:103C300030072FD4F00634D4B00604D56869203498
:103C4000002818BF804770B2B0F1FF3F05DCA869BB
:103C500064F07F04002818BF8047E1B20020FFF71E
:103C60000DFB02B0BDE8704070472868002818BFFF
:103C700080470124B007D9D568680234002818BFEE
:103C800080477007D4D5A8680434002818BF80473F
:103C90003007CFD5E8680834002818BF8047F00601
:103CA000CAD528691034002818BF8047B006C5D48B
:103CB000C9E7000040F21441C4F201010A6802425F
:103CC00014BF08607047FFF799BF00002DE9F04F5F
:103CD00082B00E68002E00F0F88040F20C4C40F2EA
:103CE000004E41F20042C4F2010CC4F2010EC4F2D3
:103CF00001020427002401234FF0000A4FF00009BD
:103D0000904208BF0327009741E0012704F00C030D
:103D10000F229A402BEA020207FA03F34FEA9A05B0
:103D20001A4346F825204E68F203DEF8002054BFFF
:103D300022EA080242EA0802CEF80020DEF8042057
:103D4000B30354BF22EA080242EA0802CEF8042074
:103D5000F302DEF8082054BF22EA080242EA080211
:103D6000B302CEF80820DCF800204FF0010354BF66
:103D700022EA080242EA0802CCF800200E680AF1A2
:103D8000010A36FA0AF204F1040400F09E8003FAF4
:103D90000AFB16EA0B08F1D04E684FF6FF72C1F22B
:103DA0001002964210DC122E50D8DFE806F0330ADB
:103DB00041454F4F4F4F4F4F4F4F4F4F4F4F4F4832
:103DC0004C00D1F80C9041E04FF6FF72C1F2210295
:103DD00096420FDC0022C1F2110296421AD0002254
:103DE000C1F21202964215D00022C1F2210296427F
:103DF00010D02BE00022C1F2220296420AD000220B
:103E0000C1F23102964205D00022C1F2320296423E
:103E10001CD100BF8A6842B1012A14BFC0F814B097
:103E2000C0F810B04FF0080910E04FF004090DE0A1
:103E3000CA6802F1080909E04FF0000906E0CA6803
:103E400002F1040902E0CA6802F10C0922460646A2
:103E5000B8F5807F24BF203A043637680F25954097
:103E600027EA050509FA02F22A433260CA79D20626
:103E70007FF584AF41F21803C4F202031A68AEF56D
:103E80007E7642F001021A601A6802F00102019285
:103E9000019A2AF0030256F802B040F60002C4F27A
:103EA000010290420FD040F60042C4F2010290425B
:103EB0003FF42BAF41F20002C4F20102009F904296
:103EC00008BF022722E7002720E702B0BDE8F08FF5
:103ED0008068084018BF012070470000C26802EAED
:103EE0000103914341EA034101617047002A08BF81
:103EF000090401617047000043F20800C2F20000AB
:103F00000068704780B542F20000C4F20200016808
:103F100041F010010160032000F092F8002000F051
:103F200005F800F02BF8002080BD0000B0B540F28D
:103F3000E412C2F2000240F270111278C2F20001E3
:103F40004FF47A730968B3FBF2F20446B1FBF2F165
:103F5000084600F029FB0F2C4FF001050CD858B98A
:103F60004FF0FF3021460022002500F03DF840F2DE
:103F7000E810C2F2000004602846B0BD80B582B0EF
:103F800041F21800C4F20200016841F00101016031
:103F9000016801F0010101910199416841F08051EE
:103FA0004160406800F0805000900098052000F0CB
:103FB00047F80420C4F201000168022262F31A618A
:103FC000016002B080BD0000002848BF704700F0CB
:103FD0001F01012202FA01F14EF200124009CEF255
:103FE000000242F82010704710B54EF60C5CCEF27D
:103FF000000CDCF80030C3F3022E8EF00704042C12
:1040000028BF0424BEF103034FF0FF3E0EFA04F470
:1040100038BF0023A14399400EFA03F39A4311439A
:1040200000F1604200F00F03090102F56442043B15
:104030006344002848BF03F10C02117010BD00005A
:104040004EF60C51CEF200010A684FF6FF031A40FB
:1040500060F30A2242F0806040F0FD700860704713
:104060002DE9F04381B0002800F0858042F200087D
:10407000C4F202080446D8F800000D4600F007001C
:1040800088420CD2D8F8000020F007002843C8F876
:104090000000D8F8000000F00700A8426BD12068AB
:1040A00041F204098107C4F2020917D5410705D579
:1040B000D9F8001041F4E061C9F80010010705D5F6
:1040C000D9F8001041F46051C9F80010D9F8001077
:1040D000A26821F0F0011143C9F80010C00741D1D6
:1040E000D8F8000000F00700A8420CD9D8F800006A
:1040F00020F007002843C8F80000D8F8000000F0BE
:104100000700A84237D12068410707D5D9F8001029
:10411000E26821F4E0611143C9F80010000708D5F6
:10412000D9F80000216920F4605040EAC100C9F8C4
:104130000000D9F8002002F00C00082841F200200D
:10414000C0F27A004ED14AF2AA13C2F38341C0F6FC
:104150000003595CD20339D440F60010C0F23D0090
:1041600048433FE06068022809D0012829D159F866
:10417000041C890307D4012001B0BDE8F08359F87D
:10418000041C8901F7D5D9F8001021F00301084378
:10419000C9F80000FFF7B0FE064641F2883700BFBD
:1041A000D9F80000616800F00C00B0EB810F97D0E7
:1041B000FFF7A2FE801BB842F2D9032001B0BDE890
:1041C000F08359F8041C8907D5D5DCE7D9F800201D
:1041D0004AF29003C2F34042C0F600039A5C48439F
:1041E000B0FBF2F0D9F800104AF29202C1F30311C9
:1041F000C0F60002515C40F2701220FA01F140F268
:10420000E810C2F200000068C2F200021160FFF77D
:104210008DFE002001B0BDE8F083000040F2701078
:10422000C2F200000068704740F2701041F20401D1
:10423000C2F20000C4F20201006809684AF2A20258
:10424000C1F30221C0F60002515CC8407047000073
:1042500040F2701041F20401C2F20000C4F2020107
:10426000006809684AF2A202C1F3C221C0F6000246
:10427000515CC840704700002DE9F04182B0002831
:1042800000F0D7800446007841F20006C007C4F26F
:10429000020644D0706800F00C00042817D0706843
:1042A00000F00C00082802D17068C0030FD46568C4
:1042B0002DB1B5F5A02F10D0B5F5803F11D03068E5
:1042C00020F480303060306820F480200CE03068CA
:1042D000800324D5606810BBABE0306840F48020D8
:1042E0003060306840F480303060FFF705FE002D0C
:1042F000054611D03068800311D4FFF7FDFD401B47
:104300006428F7D916E100BFFFF7F6FD401B6428CB
:104310004FF0030000F28A8030688003F4D42078E4
:10432000800718D5706810F00C0F07D0706800F087
:104330000C00082827D17068C00324D43068800797
:1043400002D52069012874D13068616920F0F80035
:1043500040EAC1003060207800074FD5A06940B323
:104360000020C4F242200121C0F88014FFF7C4FDF0
:10437000054600BF706A80072DD4FFF7BDFD401BC6
:104380000228F7D9D6E02069002840F20000C4F2E4
:10439000422000F0A68001210160FFF7ADFD054637
:1043A00030688007D0D4FFF7A7FD401B0228F7D95B
:1043B000C0E00020C4F242200021C0F88014FFF7C2
:1043C0009BFD0546706A800718D5FFF795FD401BD9
:1043D0000228F7D9AEE040F27010C2F20000006887
:1043E00044F6D351C1F26201A0FB0101480A0190D9
:1043F00000BF0198411E00280191F9D120784007A3
:104400001BD4E5698DB1706800F00C00082846D116
:10441000012D0ED07068216A00F480328A4208D1E2
:10442000616A00F47010884203D1002002B0BDE838
:10443000F081012002B0BDE8F081F06910F08058F1
:1044400008D1F06940F08050F061F06900F08050D0
:104450000090009847F20007C4F200073868C005D2
:104460000FD4386840F480703860FFF745FD05468A
:104470003868C00505D4FFF73FFD401B6428F7D915
:1044800058E0E5681DB1052D3CD0012D3ED0306AC5
:1044900020F001003062306A20F0040039E000278B
:1044A000C4F2422700203866FFF726FD022D05469C
:1044B0000CD100BF3068800154D5FFF71DFD401BB3
:1044C00002284FF00300F5D9B0E700BF3068800143
:1044D000ABD5FFF711FD401B02284FF00300F5D9C3
:1044E000A4E700210160FFF707FD0546306880075B
:1044F0007FF531AFFFF700FD401B02284FF00300AE
:10450000F4D993E7306A40F004003062306A40F03A
:1045100001003062FFF7F0FC002D054641F28837BC
:1045200014D000BF306A800713D4FFF7E5FC401BAE
:10453000B842F7D9032002B0BDE8F081FFF7DCFCF8
:10454000401BB8424FF003003FF670AF306A80075F
:10455000F4D4B8F1000F7FF454AFF06920F080502C
:10456000F0614EE7206AB0F5803F05D17168A2681E
:1045700021F40031114371607168626A21F4741191
:1045800011430843706001203866FFF7B5FC04460C
:10459000306880013FF549AFFFF7AEFC001B0228F1
:1045A0004FF00300F4D941E7411E0020B0EB116F3A
:1045B0001CBF012070474EF21002CEF20002516083
:1045C0004EF62351CEF20001F0230B7007219060CC
:1045D000116070477047000070470000B0B582B0AE
:1045E000026805461068D368546900F02F0120293D
:1045F00003F0200106D129B1284602B0BDE8B04041
:1046000000F03EBF5FEA007C1EBF04F0010E03F421
:10461000907414EB0E0453D1296B012905D110F0CD
:10462000100118BF13F0100136D1010622D513F086
:1046300080011FD095F83D0021283FD1A868B0F532
:10464000805F03D12869002800F0F680286A411CA9
:10465000296200785060E88C01380104E8842DD18B
:10466000D06820F08000D060D06840F04000D0607A
:1046700002B0B0BD400621D513F040001ED0D06876
:10468000202120F04000D060284685F83D1002B07F
:10469000BDE8B04000F0E0BA002001901068019041
:1046A0005068019001985069400611D4A88DE98D99
:1046B000EB8D002B18BF884240F0A58002B0B0BD42
:1046C000C20718BF13F480722CD1420730D436E0F1
:1046D000A86B016849688BB2002BEFD0AC8DA34268
:1046E000ECD2E9858169202916D0D16821F4807146
:1046F000D160516921F001015161516921F04001FE
:104700005161202185F83E1000212963D16821F0F4
:104710001001D160FFF700FAA88DE98D401A81B22F
:10472000284684E02A6C42F001022A64420706D53A
:10473000BEF1000F03D02A6C42F002022A64820705
:1047400006D5BEF1000F03D02A6C42F004022A64A1
:10475000BCF1000F09D541EA0E02B2FA82F2520909
:1047600003D12A6C42F008022A642A6C002AA5D0E0
:1047700010F0200018BF002902D0284600F080FE6B
:10478000286841692A6C01F0400102F0080289188A
:104790002CD0C16821F49071C160416921F0010100
:1047A0004161296B012903D1C16821F01001C16069
:1047B000202185F83E1000212963416949061CD556
:1047C000416921F040014161A86BB0B145F27541EA
:1047D000C0F600014163FFF7BFF900283FF46EAF58
:1047E000A86B416B02B0BDE8B04008472846FFF710
:1047F000F3FE0020286402B0B0BD284602B0BDE838
:10480000B040FFF7E9BED368401A23F49073D36039
:10481000536981B223F001035361202385F83E30B0
:1048200000232B63D368284623F01003D36002B023
:10483000BDE8B040FFF7CEBE286A30F8021B6FF328
:104840005F215160286206E7002804BF01207047FD
:1048500010B5044690F83D0028B9002084F83C00CB
:10486000204600F061F8242084F83D002068D4E957
:104870000212C36823F40053C360036923F4405356
:104880001A430261D4E904231143C268194341F277
:104890000C639A431143C1604169A26921F44071DC
:1048A000114343F60002C4F201029042416102D07A
:1048B000FFF7BAFC01E0FFF7CBFC6268192148431F
:1048C0009100B0FBF1F048F21F51C5F2EB11A0FBD3
:1048D00001235A094FF69C73C0F6FF7302FB0300D5
:1048E000322303EB0010A0FB0101F02303EA511374
:1048F000206803EB0212C1F3431111448160016986
:1049000021F490410161416921F02A014161C168AE
:1049100041F40051C16000202021206484F83D1042
:1049200084F83E1010BD000070B586B0006844F2F7
:104930000041C4F20001002688420596CDE90366D5
:10494000029637D043F60001C4F20101884266D1D5
:1049500041F21800C4F20200016840F6000441F47C
:10496000804101600168C4F2010401F480410191B9
:104970000199016802AD41F0040101600068294617
:1049800000F00400019001984FF4007002900220A2
:104990000390032005902046FFF798F94FF48060BC
:1049A00002900020CDE9030020462946FFF78EF94A
:1049B00006B070BD41F21800C4F20200416840F632
:1049C000000441F4003141604168C4F2010401F483
:1049D000003101910199016802AD41F004010160CB
:1049E0000068294600F0040001900198042002901C
:1049F00002200390032005902046FFF767F9082066
:104A0000CDE90206204629460496FFF75FF92620E5
:104A100002210122FFF7E8FA2620FFF7D5FA06B0B7
:104A200070BD0000034690F83E0020280AD10029FE
:104A30004FF0010018BF002A00D1704793F83C00E6
:104A4000012801D1022070470020186399622221B9
:104A50009A85DA85186483F83E10196883F83C005B
:104A6000CA6842F48072CA604A6942F001024A612F
:104A7000CA6842F02002CA607047000010B50068A2
:104A800044F20044C4F20004A04218BF10BD4AF62C
:104A9000A800C0F6000002F06DFD0EA002F06AFD55
:104AA0004AF2A650C0F6000002F064FD04F544404E
:104AB00010210122FFF71AFA40F2604040F23C5107
:104AC000C2F20000C2F200010122BDE8104000F075
:104AD000A1B800BF727334383520727820646F6ECD
:104AE000650000002DE9F04381B0044690F83D00D8
:104AF00020280DD10D4600294FF0010000F08680DE
:104B00001646002A00F0828094F83C00012803D168
:104B1000022001B0BDE8F083012084F83C000020B1
:104B200020642120984684F83D00FFF7E5F9A6842B
:104B3000E684A1688146B1F5805F01D1206910B19A
:104B40002F46002500E00027002084F83C00E08C80
:104B500058B308F1010609E097B117F8010B216875
:104B60004860E08C0138E084E08CF0B12068006897
:104B70000006F1D4BEB1B8F1000F0ED120E000BFA5
:104B800035F8020B21686FF35F2048600027E8E7E3
:104B900001680906E0D4002EFAD0FFF7ADF9A0EBCA
:104BA000090040450CD82068F2E7206800684006FC
:104BB00028D4B8F1000F03D018F1010515D01AE080
:104BC0002068C16821F4D071C160416921F0010100
:104BD0004161202084F83D0084F83E00002084F8E4
:104BE0003C00032001B0BDE8F0832068016849065D
:104BF00008D4002DFAD0FFF77FF9A0EB090040455B
:104C0000F3D9DDE7202084F83D00002001B0BDE8A5
:104C1000F0830000034690F83D0020280AD10029C7
:104C20004FF0010018BF002A00D1704793F83C00F4
:104C3000012801D1022070471962002021219A84A5
:104C4000DA84186483F83D10196883F83C00CA6858
:104C500042F08002CA60704710B5006844F2004418
:104C6000C4F20004A04218BF10BD4AF6A800C0F666
:104C7000000002F07FFC0EA002F07CFC4AF2A6507D
:104C8000C0F6000002F076FC04F54440102100223A
:104C9000FFF72CF940F2604040F23C51C2F20000B4
:104CA000C2F200010122BDE81040FFF7BBBE00BF09
:104CB000727334383520747820646F6E650000009C
:104CC00080B5FBF72FFA40F22851C2F200010860CC
:104CD00080BD00007047000040F22850C2F2000082
:104CE0000068FBF723BA000010B584B040F27414DA
:104CF000C2F20004608921890843009011200190CC
:104D0000002002900321206803916946FEF7DEFF30
:104D1000206861890122FFF7E9F8206821890122D2
:104D2000FFF7E4F86069002818BF8047002004B04E
:104D300010BD00002DE9F04381B09146884606463B
:104D4000002400253046414600F0D2F907460128EC
:104D500018BF4C452BD0306831890022FFF7C6F8C8
:104D6000316901208847306871890122FFF7BEF858
:104D7000316901208847306831890122FFF7B6F890
:104D800031690120884731690120884730683189BD
:104D90000022FFF7ABF8316901208847306871893C
:104DA0000022FFF7A3F80135ECB24C45CAD93846CA
:104DB00001B0BDE8F08300002DE9F04F89B0002874
:104DC0004FF00005039218BF002900F075810446DA
:104DD0000398002800F07081A0690191002818BF95
:104DE00080470DF1140B00220AE000BF049A0298DC
:104DF000A8F80800039801328242154600F03C8171
:104E00000198049200EB0218464616F80A1F48075C
:104E100000F188802068029162B121890122FFF7A8
:104E200065F8206861890122FFF760F82169012097
:104E300088472068218900224FF0000AFFF756F8C2
:104E4000216901208847206861890022FFF74EF818
:104E500098F80A7017F0080908BF94F80CA0B8F881
:104E60000450B8070ED407F0010040EA4500C1B273
:104E700020465246FFF75EFF01284AD0B9F1000FE5
:104E800018D046E0062000EAD510009000F1F001AD
:104E900020465246FFF74EFF012802D0B9F1000F1D
:104EA00008D0E9B2204600F023F9012804D0B9F176
:104EB000000F01D100252DE0F8072AD020682189B4
:104EC0000122FFF713F8206861890122FFF70EF82D
:104ED000216901208847206821890022FFF706F810
:104EE000216901208847206861890022FEF7FEFFC2
:104EF0000098524640F0F1012046FFF71BFF0128C1
:104F000007D0B9F1000F04D16DA002F033FB0025EA
:104F100000E00125049A0298002D08BF10F0080057
:104F200000F0AA803078B8F80610C00732D1002906
:104F300000F09380D8F8007008F10B0908F10A0A14
:104F400000250E46029112E09AF90000B0F1FF3FF1
:104F50003846D8BF08F10C000178204600F0C8F8A8
:104F600090B1013E0137300405F1010579D09AF87E
:104F700000004006E8D599F80010204600F0B8F887
:104F80000028E1D16EE000BF9AF800000007E8D4E5
:104F900068E000BF002962D0D8F8006008F10A0973
:104FA0000D46029110E000BF21690120884720686A
:104FB00061890122FEF79AFF206861890022FEF7CD
:104FC00095FF28043FF412AF206821890122FEF7E3
:104FD0008DFF2169012088472089032105902068E1
:104FE0004FF0000A08915946CDE906AAFEF76EFE79
:104FF000802700BF206861890122FEF777FF2068C3
:105000002189FEF765FF0028206861894FF00002C2
:1050100018BF4AEA070AFEF769FF2169012088479D
:105020007F08E7D1208903210590112006900020F8
:105030000790206808915946FEF748FE06F801AB34
:1050400099F80000013DC006BBD42804ACD020680C
:1050500021890022FEF74AFFA6E7002503E0002091
:10506000C6E6029D049AB8F80600A9B28142A8F8E3
:1050700008503FF4BFAE002598F80A00800617D408
:10508000206821890022FEF731FF2169012088472D
:10509000206861890122FEF729FF216901208847E4
:1050A000206821890122FEF721FF2169012088471C
:1050B000E069002818BF8047284609B0BDE8F08F96
:1050C0003C3C2D4932432D4552524F522D3E3E20FD
:1050D0004E41434B3A2073656E64696E672072657A
:1050E00070656174656420616464720D0A0000007B
:1050F000F0B585B00D460446802600BF2068618962
:105100000022FEF7F3FE2068218916EA050218BF87
:105110000122FEF7EBFE21690120884720686189A2
:105120000122FEF7E3FE7608E8D1206861890022BB
:105130000026FEF7DBFE21690120884720682189CF
:105140000122FEF7D3FE216901208847206861898A
:105150000122FEF7CBFE20890327CDE90106206856
:1051600001A903960497FEF7B1FD20682189FEF797
:10517000AFFEB0FA80F0218945091120CDE9020681
:105180002068019101A90497FEF7A0FD20686189BC
:105190000022FEF7ABFE284605B0F0BD10B540F288
:1051A000CC3046F20041C2F20000C4F2000140F2ED
:1051B000001404220023C0F2010480E80E0000F174
:1051C0000C014FF4502C4FF4001E81E8085084610C
:1051D0008383FEF775FB002808BF10BDBDE81040B3
:1051E000FEF7B6B92DE9F04786B0002741F2180066
:1051F000CDE90477CDE90277C4F20200016840F6F8
:10520000004441F0200101600168C4F2010401F092
:105210002001019101990168A4F5806641F0040123
:1052200001600168012201F0040101910199016806
:105230004FF0010841F0080101600068302100F0E2
:105240000800019001983046FEF750FE204642F2D9
:10525000E0710122FEF74AFE20464FF48041002211
:105260004FF48049FEF742FE30464FF400410022E1
:10527000FEF73CFE48F2300002ADCDE902084FF0E7
:10528000020A304629460497CDF814A0FEF71EFD09
:105290004FF480600290112003A981E88104204628
:1052A0002946FEF713FD4FF4805002900020C1F212
:1052B0001100CDE9030720462946FEF707FD42F21B
:1052C000E030CDE9020803200590204629460497E6
:1052D000FEF7FCFC20462946CDE90298CDE9047A88
:1052E000FEF7F4FC282001210122FEF77DFE282094
:1052F000FEF76AFE06B0BDE8F087000080B540F218
:105300001C4043F60001C2F20000C4F20101002378
:105310004FF00C0C4FF4E13280E80E00C0E903338B
:10532000C0E905C3C361FFF78FFA002808BF80BD3D
:10533000BDE88040FEF70CB980B540F2604044F211
:105340000041C2F20000C4F2000100234FF00C0C37
:105350004FF4E13280E80E00C0E90333C0E905C331
:10536000C361FFF771FA002808BF80BDBDE8804027
:10537000FEF7EEB8FEE70000FEE7000080B502F0A1
:10538000D1F803F0C1FBBDE8804002F0E5B80000B1
:1053900070B590B006AC20462821FAF744FF0120F2
:1053A00006900A904FF4E01000254FF48031022659
:1053B0000F9020460595CDE90355CDE90155CDE97E
:1053C0000715CDE90D61FEF757FF20B1EFF310800F
:1053D00072B600BFFEE70F20CDE901064FF48060F2
:1053E000CDE9040501A802210395FEF739FE20B19D
:1053F000EFF3108072B600BFFEE710B070BD000082
:1054000041F20400C4F20200016801F00C01082915
:1054100041F20021C0F27A0117D102680368C2F399
:105420008342DB0302F1020205D440F60011C0F210
:105430003D01514309E003689B0301D4514304E05B
:1054400040F60011C0F23D01514340F27012C2F229
:105450000002116000684AF29201C0F30310C0F626
:105460000001085C116821FA00F01060704700002C
:1054700070470000406A0021C185C184FFF7ACB8C5
:1054800081B090F83E1022291DD18268B2F5805F6C
:1054900002D1016900293ED0816AB2F5805F07D050
:1054A0000AB9026922B10268526802F07F0201E083
:1054B000026852680A70816A01318162C18D0139C6
:1054C0000A04C18501D001B070470168CA6822F0A2
:1054D0002002CA60CA6822F48072CA604A6922F057
:1054E00001024A61202280F83E20026B012A1BD172
:1054F00000220263CB6823F01003CB600B68DB064D
:1055000005D500920A680092496800910099818D42
:1055100001B0FFF75FB80168826A49686FF35F21E5
:1055200022F8021B8262C9E701B0FFF7A7BA0000A8
:1055300040F26040C2F20000FFF750B840F2CC30B9
:10554000C2F20000FEF79AB8FEE70000002804BF90
:1055500000207047C1B209B101200CE010F47F4176
:1055600002D0090A092006E010F47F0107BF010EEE
:105570001920090C11204AF2AA02C0F60002515C5F
:105580000844704770B582B00446DDE906C61430A1
:10559000C4E9050004F12000089D80E80E101846BB
:1055A0002321624602F07CF904F120030FCB1A4458
:1055B00048F23953043AC0F6000301F091FF202E5F
:1055C000E06104D30FA018A1A72201F0C1FB48F6A7
:1055D0008D1284F8366084F83560002604F14C00A2
:1055E000C0F6000221462346A663C4E9115526638E
:1055F00084F83460C4E91E660096019603F0AEFBA1
:1056000002B070BD7072696F72697479203C20526B
:10561000545F5448524541445F5052494F52495497
:10562000595F4D41580000005F72745F7468726585
:1056300061645F696E69740080B500F0FFFB002053
:1056400080BD000080B500F0F5FD002080BD0000A9
:1056500080B500680968FBF78DF8002818BF0120A5
:1056600080BD000070470000B0B582B040F23C3011
:105670004AF6F071C2F20000C0F60001016040F28B
:1056800040304BF24011C2F20000C0F60001016050
:105690000120782101F098FB43F20005C2F20005D9
:1056A000286080B3152045F23D710A24009019A0AE
:1056B000C0F6000100224FF48063019402F016FF4F
:1056C0002A68044615A110460022002302F084FC3B
:1056D000286850B94AF6AE704AF6C271C0F60000AA
:1056E000C0F60001A42201F033FB286890F82110D5
:1056F00041F0020180F8211014B1204603F0A4F813
:10570000002002B0B0BD07A001F034FF4FF0FF3021
:1057100002B0B0BD747368656C6C00007368727819
:10572000000000006E6F206D656D6F727920666FEE
:1057300072207368656C6C0A0000000043F2000A76
:10574000C2F2000ADAF8000040F2443490F8211066
:10575000C2F2000441F0010280F82120880740F2E3
:10576000C830C2F2000002D40020207023E001689B
:1057700039B140F24430C2F200008022FAF75EFDF7
:1057800019E001F04BF930B10020207147F26D3083
:10579000C2F2680009E046F67300C0F22000C4F8C7
:1057A000030046F66610C7F26E3020602046FAF716
:1057B00051FD3E212152204601F0DCFE4AF6AC7636
:1057C0004FF001084FF0000BC0F60006022701E081
:1057D00080F8208001F06AFC8146DAF80000B9F117
:1057E0001B0FF5D090F82010022909D0012940F0B4
:1057F0007380B9F15B0F40F06D8080F82070E9E7AD
:10580000A9F14101022980F820B0E3D3B9F1440F96
:1058100000F29080DFE819F04500950095009500B2
:105820009500950095009500D30013016D0095003B
:1058300095006D00950095009500950095009500E8
:1058400095009500950095009500950095009500B0
:1058500095009500950095009500950095009500A0
:105860009500950095009500950095009500950090
:105870009500950095009500950095009500950080
:105880009500950095009500950095009500950070
:1058900095009500950095009500950095004600AF
:1058A000890197E7B0F87410B0F872209142BFF404
:1058B00091AF084490F822104AF6BF70C0F600007D
:1058C00001F058FEDAF80000B0F874100131A0F8C9
:1058D00074107FE780F820B0B9F10D0F2AD8DFE807
:1058E00009F007303030303030306EAE08303008DC
:1058F00070E701F093F8012812D1DAF8000090F86F
:105900002100C00705D04AF64D70C0F6000001F036
:1059100031FEDAF80000B0F87210223000F02CFFEF
:10592000DAF8000090F82100800700F1B18084F8D7
:1059300000B024E1B9F17F0F41D0B9F1FF0F3FF47E
:1059400049AFB0F87210502928BFA0F872B0B0F873
:105950007430B0F872209A4240F2A580C11801F16B
:1059600023002231D21A01F07DFFDAF80000B0F8EE
:105970007410084480F82290DAF8000090F82110A2
:10598000C90707D0B0F87410084400F1220196A0AE
:1059900001F0F0FDDAF80000B0F87450B0F87200D1
:1059A000854280F0908000BF304601F0E3FDDAF8D8
:1059B00000000135B0F872008542F5D383E0B0F8FD
:1059C000741000293FF406AFB0F872200139531E5D
:1059D0009AB2A0F872308BB29A42A0F8741040F2DA
:1059E0008480C11801F122002331D21A01F03AFF5C
:1059F000DAF80000B0F87210084480F822B0DAF843
:105A00000000B0F87410084400F1220172A001F007
:105A1000B1FDDAF80010B1F87400B1F872108842E4
:105A20003FF6D8AE451E00BF304601F0A3FDDAF8C0
:105A300000000135B0F872008542F5D3CAE6DAF805
:105A40000000B0F8741059B1002500BF304601F0D5
:105A500091FDDAF800000135B0F874108D42F5D3ED
:105A600000F122054AF64D70C0F6000001F082FDFB
:105A700000F0D4FF012802D1284600F0DFFDDAF85B
:105A8000000090F8210080073AD484F800B090E03C
:105A900040F2C830C2F200000168E1B32046802223
:105AA000FAF7CCFB6BE0104480F82290DAF80000A3
:105AB00090F82100C00706D04AF6BF70C0F600007B
:105AC000494601F057FDDAF80000B0F87210B0F85E
:105AD00074200131A0F8721089B201325029A0F867
